:020000040800F2
:100000000000032035270008D9240008DF24000859
:10001000E5240008EB240008F1240008000000009B
:10002000000000000000000000000000F7240008AD
:100030000525000800000000132500082125000800
:1000400085270008852700088527000885270008E0
:1000500085270008852700082D250008852700082A
:1000600085270008852700088527000885270008C0
:1000700085270008852700088527000885270008B0
:1000800085270008852700088527000885270008A0
:1000900085270008852700088527000849250008CE
:1000A0008527000885270008852700088527000880
:1000B0008527000865250008852700088527000892
:1000C0008527000885270008852700088527000860
:1000D0008527000885270008852700088527000850
:1000E0008527000885270008852700088527000840
:1000F0008527000885270008852700088527000830
:10010000852700088527000885270008852700081F
:10011000852700088527000885270008852700080F
:1001200085270008852700088527000885270008FF
:1001300085270008852700088527000885270008EF
:1001400085270008852700088527000885270008DF
:1001500085270008852700088527000885270008CF
:1001600085270008852700088527000885270008BF
:100170008527000885270008852700080000000063
:10018000852700088527000885270008852700089F
:10019000852700088527000885270008852700088F
:0C01A00085270008852700088527000837
:1001B00010B5054C237833B9044B13B10448AFF3A1
:1001C00000800123237010BD2802002000000000E1
:1001D000C8D9000808B5034B1BB103490348AFF366
:1001E000008008BD000000002C020020C8D90008D3
:1001F00001F0FF01102A2BDB10F0070F08D010F8D8
:10020000013B013A8B422DD010F0070F42B3F6D1DB
:10021000F0B441EA012141EA014122F007047FF0F4
:1002200000070023F0E80256083C85EA010586EA4B
:10023000010685FA47F5A3FA87F586FA47F6A5FA87
:1002400087F68EB9EED1F0BC01F0FF0102F0070293
:1002500032B110F8013B013A83EA010313B1F8D13E
:100260000020704701387047002D06BF354603381F
:10027000073815F0010F07D1013015F4807F02BF58
:10028000013015F4C03F0130F0BC0138704700BFA9
:10029000034613F8012B002AFBD1181A01387047C6
:1002A00081F0004102E000BF83F0004330B54FEA27
:1002B00041044FEA430594EA050F08BF90EA020F94
:1002C0001FBF54EA000C55EA020C7FEA645C7FEA27
:1002D000655C00F0E2804FEA5454D4EB5555B8BF4A
:1002E0006D420CDD2C4480EA020281EA030382EABB
:1002F000000083EA010180EA020281EA0303362D4D
:1003000088BF30BD11F0004F4FEA01314FF4801C1F
:100310004CEA113102D0404261EB410113F0004F31
:100320004FEA03334CEA133302D0524263EB4303E8
:1003300094EA050F00F0A780A4F10104D5F1200E86
:100340000DDB02FA0EFC22FA05F2801841F10001E1
:1003500003FA0EF2801843FA05F359410EE0A5F1B5
:1003600020050EF1200E012A03FA0EFC28BF4CF0E6
:10037000020C43FA05F3C01851EBE37101F000459C
:1003800007D54FF0000EDCF1000C7EEB00006EEBA9
:100390000101B1F5801F1BD3B1F5001F0CD3490833
:1003A0005FEA30004FEA3C0C04F101044FEA44528A
:1003B00012F5800F80F09A80BCF1004F08BF5FEA11
:1003C000500C50F1000041EB045141EA050130BDF1
:1003D0005FEA4C0C404141EB0101013C28BFB1F503
:1003E000801FE9D291F0000F04BF01460020B1FA4E
:1003F00081F308BF2033A3F10B03B3F120020CDA21
:100400000C3208DD02F1140CC2F10C0201FA0CF0FE
:1004100021FA02F10CE002F11402D8BFC2F1200C63
:1004200001FA02F120FA0CFCDCBF41EA0C01904019
:10043000E41AA2BF01EB0451294330BD6FEA040462
:100440001F3C1CDA0C340EDC04F11404C4F120024D
:1004500020FA04F001FA02F340EA030021FA04F35F
:1004600045EA030130BDC4F10C04C4F1200220FAB6
:1004700002F001FA04F340EA0300294630BD21FAF4
:1004800004F0294630BD94F0000F83F4801306BFBA
:1004900081F480110134013D4EE77FEA645C18BFAE
:1004A0007FEA655C29D094EA050F08BF90EA020F45
:1004B00005D054EA000C04BF1946104630BD91EA3D
:1004C000030F1EBF0021002030BD5FEA545C05D140
:1004D0004000494128BF41F0004130BD14F580047F
:1004E0003CBF01F5801130BD01F0004545F0FE41F3
:1004F00041F470014FF0000030BD7FEA645C1ABF28
:10050000194610467FEA655C1CBF0B46024650EA5E
:10051000013406BF52EA033591EA030F41F400218A
:1005200030BD00BF90F0000F04BF0021704730B510
:100530004FF4806404F132044FF000054FF00001E5
:1005400050E700BF90F0000F04BF0021704730B5A6
:100550004FF4806404F1320410F0004548BF40427B
:100560004FF000013EE700BF42004FEAE2014FEAD0
:1005700031014FEA02701FBF12F07F4393F07F4FAB
:1005800081F06051704732F07F4208BF704793F0AE
:100590007F4F04BF41F40021704730B54FF46074C1
:1005A00001F0004521F000411CE700BF50EA0102C4
:1005B00008BF704730B54FF000050AE050EA01026D
:1005C00008BF704730B511F0004502D5404261EBDD
:1005D00041014FF4806404F132045FEA915C3FF41E
:1005E000D8AE4FF003025FEADC0C18BF03325FEABB
:1005F000DC0C18BF033202EBDC02C2F1200300FA6C
:1006000003FC20FA02F001FA03FE40EA0E0021FA90
:1006100002F11444BDE600BF70B54FF0FF0C4CF47E
:10062000E06C1CEA11541DBF1CEA135594EA0C0F30
:1006300095EA0C0F00F0DEF82C4481EA030621EA6B
:100640004C5123EA4C5350EA013518BF52EA0335A6
:1006500041F4801143F4801338D0A0FB02CE4FF058
:100660000005E1FB02E506F00042E0FB03E54FF088
:100670000006E1FB03569CF0000F18BF4EF0010E80
:10068000A4F1FF04B6F5007F64F5407404D25FEA7C
:100690004E0E6D4146EB060642EAC62141EA55512F
:1006A0004FEAC52040EA5E504FEACE2EB4F1FD0C71
:1006B00088BFBCF5E06F1ED8BEF1004F08BF5FEAEF
:1006C000500E50F1000041EB045170BD06F00046A1
:1006D00046EA010140EA020081EA0301B4EB5C044E
:1006E000C2BFD4EB0C0541EA045170BD41F4801146
:1006F0004FF0000E013C00F3AB8014F1360FDEBF6B
:10070000002001F0004170BDC4F10004203C35DA46
:100710000C341BDC04F11404C4F1200500FA05F3C9
:1007200020FA04F001FA05F240EA020001F000426A
:1007300021F0004110EBD37021FA04F642EB0601E0
:100740005EEA430E08BF20EAD37070BDC4F10C040A
:10075000C4F1200500FA04F320FA05F001FA04F2CE
:1007600040EA020001F0004110EBD37041F10001BA
:100770005EEA430E08BF20EAD37070BDC4F12005C5
:1007800000FA05F24EEA020E20FA04F301FA05F22D
:1007900043EA020321FA04F001F0004121FA04F2D5
:1007A00020EA020000EBD3705EEA430E08BF20EAA5
:1007B000D37070BD94F0000F0FD101F000464000DF
:1007C00041EB010111F4801F08BF013CF7D041EA61
:1007D000060195F0000F18BF704703F00046520065
:1007E00043EB030313F4801F08BF013DF7D043EA36
:1007F0000603704794EA0C0F0CEA135518BF95EAEC
:100800000C0F0CD050EA410618BF52EA4306D1D172
:1008100081EA030101F000414FF0000070BD50EA91
:10082000410606BF1046194652EA430619D094EA1B
:100830000C0F02D150EA013613D195EA0C0F05D105
:1008400052EA03361CBF104619460AD181EA030159
:1008500001F0004141F0FE4141F470014FF0000011
:1008600070BD41F0FE4141F4780170BD70B54FF0AC
:10087000FF0C4CF4E06C1CEA11541DBF1CEA13552C
:1008800094EA0C0F95EA0C0F00F0A7F8A4EB05040E
:1008900081EA030E52EA03354FEA013100F0888005
:1008A0004FEA03334FF0805545EA131343EA1263CE
:1008B0004FEA022245EA111545EA10654FEA002683
:1008C0000EF000419D4208BF964244F1FD0404F53C
:1008D000407402D25B084FEA3202B61A65EB030598
:1008E0005B084FEA32024FF480104FF4002CB6EB55
:1008F000020E75EB030E22BFB61A754640EA0C00D5
:100900005B084FEA3202B6EB020E75EB030E22BF14
:10091000B61A754640EA5C005B084FEA3202B6EB55
:10092000020E75EB030E22BFB61A754640EA9C0014
:100930005B084FEA3202B6EB020E75EB030E22BFE4
:10094000B61A754640EADC0055EA060E18D04FEAA2
:10095000051545EA16754FEA06164FEAC30343EA42
:1009600052734FEAC2025FEA1C1CC0D111F4801F0F
:100970000BD141EA00014FF000004FF0004CB6E708
:1009800011F4801F04BF01430020B4F1FD0C88BFA7
:10099000BCF5E06F3FF6AFAEB5EB030C04BFB6EBB2
:1009A000020C5FEA500C50F1000041EB045170BDA5
:1009B0000EF0004E4EEA113114EB5C04C2BFD4EBD2
:1009C0000C0541EA045170BD41F480114FF0000E56
:1009D000013C90E645EA060E8DE60CEA135594EAD2
:1009E0000C0F08BF95EA0C0F3FF43BAF94EA0C0FD5
:1009F0000AD150EA01347FF434AF95EA0C0F7FF44A
:100A000025AF104619462CE795EA0C0F06D152EA9D
:100A100003353FF4FDAE1046194622E750EA410681
:100A200018BF52EA43067FF4C5AE50EA41047FF492
:100A30000DAF52EA43057FF4EBAE12E74FF0FF3CF7
:100A400006E000BF4FF0010C02E000BF4FF0010CC8
:100A50004DF804CD4FEA410C7FEA6C5C4FEA430C41
:100A600018BF7FEA6C5C1BD001B050EA410C0CBF90
:100A700052EA430C91EA030F02BF90EA020F0020F2
:100A8000704710F1000F91EA030F58BF994208BF59
:100A900090422CBFD8176FEAE37040F00100704716
:100AA0004FEA410C7FEA6C5C02D150EA013C07D16D
:100AB0004FEA430C7FEA6C5CD6D152EA033CD3D0B8
:100AC0005DF8040B704700BF8446104662468C46B2
:100AD0001946634600E000BF01B5FFF7B7FF0028E5
:100AE00048BF10F1000F01BD4DF808EDFFF7F4FF0E
:100AF0000CBF012000205DF808FB00BF4DF808ED99
:100B0000FFF7EAFF34BF012000205DF808FB00BFBB
:100B10004DF808EDFFF7E0FF94BF012000205DF8DD
:100B200008FB00BF4DF808EDFFF7CEFF94BF012092
:100B300000205DF808FB00BF4DF808EDFFF7C4FF8B
:100B400034BF012000205DF808FB00BF4FEA410CD4
:100B50007FEA6C5C02D150EA013C0AD14FEA430CB7
:100B60007FEA6C5C02D152EA033C02D14FF00000F4
:100B700070474FF0010070474FEA410212F5001232
:100B800015D211D56FF47873B3EB625212D94FEAD4
:100B9000C12343F0004343EA505311F0004F23FABE
:100BA00002F018BF404270474FF00000704750EA13
:100BB000013005D111F0004008BF6FF000407047D0
:100BC0004FF00000704700BF4A0011D212F500122A
:100BD00011D20DD56FF47873B3EB62520ED44FEA95
:100BE000C12343F0004343EA505323FA02F0704715
:100BF0004FF00000704750EA013002D14FF0FF3053
:100C000070474FF0000070474FEA4102B2F1E043F5
:100C100024BFB3F5001CDCF1FE5C0DD901F0004CE3
:100C20004FEAC0024CEA5070B2F1004F40EB830033
:100C300008BF20F00100704711F0804F21D113F15F
:100C40003872BCBF01F00040704741F480114FEA98
:100C50005252C2F11802C2F1200C10FA0CF320FA21
:100C600002F018BF40F001004FEAC1234FEAD3233E
:100C700003FA0CFC40EA0C0023FA02F34FEA4303A8
:100C8000CCE77FEA625307D150EA01331EBF4FF031
:100C9000FE4040F44000704701F0004040F0FE404C
:100CA00040F40000704700BF53B94AB9002908BF9B
:100CB00000281CBF4FF0FF314FF0FF3000F0A6B905
:100CC000ADF1080C6DE904CE00F03CF8DDF804E06D
:100CD000DDE9022304B0704738B500220023044642
:100CE0000D46FFF70BFF28B920462946BDE83840DE
:100CF00000F00AB8204605F1004100F005F8404236
:100D000061EB410138BD00BFD0B50C4B0022064657
:100D10000F46FFF781FCFFF757FF0446FFF702FC81
:100D2000074B0022FFF778FC02460B463046394657
:100D3000FFF7BAFAFFF748FF2146D0BD0000F03DAB
:100D40000000F0412DE9F047089E0D4604460F468D
:100D5000002B4AD18A42944665D9B2FA82F343B154
:100D600002FA03FCC3F120029F4020FA02F217436B
:100D70009C404FEA1C4E1FFA8CF5B7FBFEF1220C8B
:100D80000EFB117742EA074201FB05F090420AD9B7
:100D90001CEB020201F1FF3780F01C81904240F20F
:100DA000198102396244121AA4B2B2FBFEF00EFBA2
:100DB000102244EA024400FB05F5A5420AD91CEBC7
:100DC000040400F1FF3280F00781A54240F2048163
:100DD0006444023840EA0140641B00211EB1DC403B
:100DE0000023C6E90043BDE8F0878B4208D9002EF6
:100DF00000F0ED800021C6E900050846BDE8F08757
:100E0000B3FA83F1002949D1AB4202D3824200F206
:100E1000F880841A65EB030201201746002EE2D009
:100E2000C6E90047DFE702B9FFDEB2FA82F3002B22
:100E300040F090808A1A4FEA1C471FFA8CFE01216D
:100E4000B2FBF7F507FB1520220C42EA00420EFB2D
:100E500005F0904208D91CEB020205F1FF3802D2DE
:100E6000904200F2CB804546121AA4B2B2FBF7F0D2
:100E700007FB102244EA02440EFB00FEA64508D9F7
:100E80001CEB040400F1FF3202D2A64500F2BB8045
:100E90001046A4EB0E0440EA05409FE7C1F120078D
:100EA0008B4022FA07FC4CEA030C05FA01F420FA05
:100EB00007F3FD404FEA1C492343B5FBF9F81FFA3D
:100EC0008CFE09FB18551C0C44EA054408FB0EF582
:100ED000A54202FA01F200FA01F00BD91CEB04045E
:100EE00008F1FF3A80F08880A54240F28580A8F1A1
:100EF00002086444641B9DB2B4FBF9F309FB13447C
:100F000045EA044403FB0EFEA64508D91CEB040485
:100F100003F1FF356CD2A6456AD9023B644443EA2B
:100F20000843A3FB0295A4EB0E04AC42C846AE46B0
:100F300056D353D056B1B0EB080264EB0E0404FA5A
:100F400007F7CA40CC401743C6E900741846002191
:100F5000BDE8F087C3F1200102FA03FC20FA01F298
:100F600025FA01F19D402A434FEA1C471FFA8CFEE7
:100F7000B1FBF7F007FB1015110C41EA054100FB2E
:100F80000EF58D4204FA03F408D91CEB010100F1BF
:100F9000FF382FD28D422DD902386144491B92B2BD
:100FA000B1FBF7F507FB151142EA014205FB0EF113
:100FB000914208D91CEB020205F1FF3816D291428A
:100FC00014D9023D6244521A45EA004138E73146DD
:100FD000304608E73946E6E61046FBE64845A9D222
:100FE000B9EB020865EB0C0E013BA3E74546EAE7C7
:100FF0002B4694E74046D1E7D0467BE7023D62446A
:1010000032E708460AE76444023842E7704700BF07
:101010002DE9B04388B000AF9249934807F0A0FF94
:1010200003F084F800F044FC00F0AAFE00F0B0FCED
:1010300000F058FE00F0DEFC00F01CFD00F0CCFDDE
:1010400000F000FE01F0FAFE4FF05041002001F0E8
:1010500077FF4FF0FF3002F01FF8844806F0F2FAF5
:1010600003F064F800F024FC814B1B68032B02DDC5
:101070007F4B00221A607F4B1B68092B02DD7D4BE2
:1010800000221A607C4B1B68B3F5616F02DD7A4B5E
:1010900000221A60774B1B68002B1DD1774B002272
:1010A0001A60764B1B68764A82FB03121A4452116F
:1010B000DB17D31ADBB23B73704B1A683B7B1946C4
:1010C0000B461B015B1A9B0092FBF3F101FB03F340
:1010D000D31ADBB27B73E6E0664B1B68012B08D1A9
:1010E000654B00221A60634B1B680133614A136031
:1010F000D9E0604B1B68022B07D05E4B1B68042BAA
:1011000003D05C4B1B68062B1ED15B4B1B685B4AF4
:1011100013605A4B1B685A4A82FB03121A4452113D
:10112000DB17D31ADBB23B73544B1A683B7B19466F
:101130000B461B015B1A9B0092FBF3F101FB03F3CF
:10114000D31ADBB27B73AEE04A4B1B68032B27D16B
:10115000494B1B68494A1360484B1B68494A136056
:10116000484B1B68464A82FB03121A445211DB1794
:10117000D31ADBB23B72434B1A683B7A19460B46D3
:101180001B015B1A9B0092FBF3F101FB03F3D31AE3
:10119000DBB27B72374B1B680133364A136082E047
:1011A000344B1B68052B2AD1334B1B68334A136021
:1011B000324B1A68334B1B68D31A334A1360324BD5
:1011C0001B682F4A82FB03121A445211DB17D31AF1
:1011D000DBB23B712C4B1A683B7919460B461B015D
:1011E0005B1A9B0092FBF3F101FB03F3D31ADBB212
:1011F0007B71204B1B6801331E4A136053E01D4B6B
:101200001B68072B44D11C4B1B681C4A13601B4BEB
:101210001A681C4B19681C4B1B680B44D31A1B4AD9
:1012200013601A4B1B68164A82FB03121A445211B0
:10123000DB17D31ADBB23B70144B1A683B781946A4
:101240000B461B015B1A9B0092FBF3F101FB03F3BE
:10125000D31ADBB27B70074B1B680133054A13605E
:1012600021E000BFE0D90008F4050020D8030020E9
:101270005C06002060060020580600205404002070
:1012800089888888580400205C04002060040020BD
:10129000774B1B68082B03D0754B1B68092B02D1B9
:1012A000744B00221A60744B1B68002B07D0724BE2
:1012B0001B68022B03D0704B1B68042B18D10A202B
:1012C00002F0A6FF4FF0FF3001F0E6FE012001F032
:1012D0000BFF022001F008FF032001F005FF0420AE
:1012E00001F002FF644B1B680133634A1360CEE2D6
:1012F000614B1B68012B7FF4B7AE5D4B1B68002B65
:1013000003D05B4B1B68012B13D13B7B1A467B7BC5
:101310005A495B4807F024FE5A495B4807F020FE13
:101320005A495B4807F01CFE5A495B4807F018FE13
:10133000DBE04F4B1B68022B12D17B7B092B07D8BC
:101340003B7B1A467B7B55494D4807F009FECCE0B4
:101350003B7B1A467B7B5249494807F001FEC4E0BB
:10136000434B1B68032B03D0414B1B68042B24D138
:101370007B7B092B07D83B7B1A467B7B4749404840
:1013800007F0EEFD06E03B7B1A467B7B44493C4878
:1013900007F0E6FD7B7A092B07D83B7A1A467B7A61
:1013A0004049394807F0DCFD9FE03B7A1A467B7ADA
:1013B0003D49354807F0D4FD97E02D4B1B68052BC0
:1013C00003D02B4B1B68062B24D17B7B092B07D822
:1013D0003B7B1A467B7B3149294807F0C1FD06E07B
:1013E0003B7B1A467B7B2E49254807F0B9FD7B796C
:1013F000092B07D83B791A467B792C49244807F0FA
:10140000AFFD72E03B791A467B792949204807F005
:10141000A7FD6AE0164B1B68072B03D0144B1B6813
:10142000082B4DD17B7B092B07D83B7B1A467B7B56
:101430002049134807F094FD06E03B7B1A467B7B6E
:101440001C490F4807F08CFD7B78092B07D83B78A7
:101450001A467B781849104807F082FD45E03B7832
:101460001A467B7815490C4807F07AFD3DE000BF2D
:1014700060060020540400205C060020ECD900081F
:1014800064040020FCD90008C804002008DA000821
:101490002C05002014DA00089005002020DA00084E
:1014A00030DA00083CDA00084CDA00085CDA0008A0
:1014B0006CDA00087CDA00088CDA00089CDA000894
:1014C0009F4B1B68092B10D1012001F00DFE02205B
:1014D00001F00AFE032001F007FE042001F004FEE3
:1014E000974B1B680133964A13604FF07F4001F021
:1014F0008BFD9449002001F05DFF9349012001F02C
:1015000059FF9249022001F055FF9149032001F053
:1015100051FF9049042001F04DFF8F4B1B6898B29A
:101520008E4B1B6899B28E4B1B689BB201339BB2EA
:101530001A4602F05FF8884B1B689BB2874A126814
:1015400091B2874A126892B2184602F053F8824B61
:101550001B6898B2814B1B6899B2814B1B689BB288
:10156000013B9BB21A4602F045F84FF0FF3001F004
:101570004BFD794B1B6898B2784B1B6899B2784B3E
:101580001B689BB2023B9BB21A4602F077F94FF000
:101590007F4001F039FD7B7B1E2B1CD87B7BC3F188
:1015A0001E031846FEF7CEFF63A3D3E90023FFF71F
:1015B00033F802460B46104619464FF00002694BBD
:1015C000FFF754F902460B4610461946FFF71CFB7D
:1015D0000346FB6124E07B7BC3F13C031846FEF726
:1015E000B1FF55A3D3E90023FFF716F802460B46D7
:1015F000104619464FF000025A4BFFF737F90246E2
:101600000B46104619464CA3D3E90023FEF74EFEC5
:1016100002460B4610461946FFF7F6FA0346FB61F1
:101620004D4B1B681846FEF78DFF04460D46F869C2
:10163000FEF79AFF02460B4643EC102B0BF084F9A1
:1016400059EC108B464B1B681846FEF77BFF024691
:101650000B4640464946FEF7DFFF02460B46204652
:101660002946FEF723FE02460B4610461946FFF7B1
:10167000CBFA03467B61394B1B681846FEF762FFC5
:1016800004460D46F869FEF76FFF02460B4643EC31
:10169000102B0BF005F959EC108B314B1B681846D9
:1016A000FEF750FF02460B4640464946FEF7B4FFA0
:1016B00002460B4620462946FEF7F8FD02460B4639
:1016C00010461946FFF7A0FA03463B61224B1B6800
:1016D00098B2224B1B6899B2D7ED057AFCEEE77AF7
:1016E00017EE903A9AB2D7ED047AFCEEE77A17EE4D
:1016F000903A9BB201F0B4FE3B7B1E2B34D83B7B6F
:10170000C3F11E031846FEF71DFF0BA3D3E9002308
:10171000FEF782FF02460B46104619464FF00002C4
:10172000104BFFF7A3F802460B4610461946FFF789
:101730006BFA0346BB613CE0182D4454FB21094081
:1017400060060020F405002064040020C804002086
:101750002C0500209005002000000020040000203F
:101760000800002000003E403B7BC3F13C031846CC
:10177000FEF7E8FE48A3D3E90023FEF74DFF02463B
:101780000B46104619464FF00002454BFFF76EF826
:1017900002460B46104619463FA3D3E90023FEF745
:1017A00085FD02460B4610461946FFF72DFA034603
:1017B000BB613C4B1B681846FEF7C4FE04460D4651
:1017C000B869FEF7D1FE02460B4643EC102B0BF036
:1017D000BBF859EC108B344B1B68143B1846FEF7D2
:1017E000B1FE02460B4640464946FEF715FF02464B
:1017F0000B4620462946FEF759FD02460B46104689
:101800001946FFF701FA03467B61284B1B6818460F
:10181000FEF798FE04460D46B869FEF7A5FE02469F
:101820000B4643EC102B0BF03BF859EC108B1E4B86
:101830001B68143B1846FEF785FE02460B464046E1
:101840004946FEF7E9FE02460B4620462946FEF7CA
:101850002DFD02460B4610461946FFF7D5F9034603
:101860003B61104B1B6898B2104B1B6899B2D7EDC7
:10187000057AFCEEE77A17EE903A9AB2D7ED047A41
:10188000FCEEE77A17EE903A9BB201F0E9FDFFF724
:10189000EBBB00BFAFF30080182D4454FB2109407F
:1018A00000003E400000002008000020040000204E
:1018B00080B594B000AF07F1200330220021184614
:1018C00007F0B1FB07F10C0300221A605A609A601E
:1018D000DA601A610023BB602B4B1B6C2A4A43F071
:1018E00080531364284B1B6C03F08053BB60BB68B0
:1018F00000237B60254B1B68244A43F4404313605C
:10190000224B1B6803F440437B607B6801233B62EE
:101910004FF480337B620223BB634FF48003FB638D
:1019200010233B64D8237B640223BB640823FB643D
:1019300007F12003184604F0C1F90346002B01D03B
:1019400000F0BEFA04F06AF90346002B01D000F063
:10195000B7FA0F23FB6002233B6100237B614FF446
:10196000A053BB614FF48053FB6107F10C030521C9
:10197000184604F01BFC0346002B01D000F0A0FA2F
:1019800000BF5037BD4680BD0038024000700040A7
:1019900080B500AF154B164A1A60144B00225A60EE
:1019A000124B00229A60114B0022DA600F4B00228A
:1019B0009A620E4B0022DA620C4B00221A630B4B28
:1019C00000225A63094802F017FF0346002B01D09A
:1019D00000F076FA0121054803F06CF80346002B6D
:1019E00001D000F06DFA00BF80BD00BF44020020AE
:1019F00000B0024080B500AF1B4B1C4A1A601A4B66
:101A00001B4A5A60184B00229A60174B0022DA607A
:101A1000154B4FF480421A61134B00225A61124B4E
:101A200000229A61104B0022DA610F4B00221A62E9
:101A30000D4803F063FC0346002B01D000F040FA90
:101A40000021094803F09EFD0346002B01D000F061
:101A500037FA0021044803F0D1FD0346002B01D0E2
:101A600000F02EFA00BF80BD84020020005C004020
:101A7000A086010080B59AB000AF07F1340334228C
:101A80000021184607F0CFFA3B46342200211846C1
:101A900007F0C9FA4E4B4F4A1A604D4B00225A606C
:101AA0004B4B00229A604A4B0022DA60484B0022DE
:101AB0001A61474B07225A61454B03229A61444BF6
:101AC0000E22DA61424B05221A62414BFE225A6213
:101AD0003F4B40F245129A623D4B4FF48272DA62FC
:101AE0003B4B40F247121A63394B002283F83420F3
:101AF000374B002283F83520354B002283F83620FF
:101B0000334803F0BBFD0346002B01D000F0D8F9A9
:101B100000237B630023BB630023FB6300233B6440
:101B200000237B640023BB640023FB644FF48063C9
:101B30003B6505237B650023BB650023FB65002314
:101B40003B66002387F86430002387F86530002364
:101B500087F8663007F13403002219461C4803F069
:101B60005DFE0346002B01D000F0AAF900233B6084
:101B700000237B600023BB600023FB6000233B61EC
:101B800000237B610023BB614FF48063FB6105236D
:101B90003B6200237B620023BB620023FB620023C5
:101BA00087F83030002387F83130002387F832304F
:101BB0003B4601221946064803F030FE0346002B3F
:101BC00001D000F07DF900BF6837BD4680BD00BF81
:101BD000D80200200068014080B500AF174B184ABA
:101BE0001A60164B4FF482725A60144B00229A60AE
:101BF000124B0022DA60114B00221A610F4B0022B7
:101C00005A610E4B4FF400729A610C4B0022DA615C
:101C10000A4B00221A62094B00225A62074B00222B
:101C20009A62064B0A22DA62044804F0DCFE03469C
:101C3000002B01D000F044F900BF80BD80030020DC
:101C40000050014080B586B000AF07F108030022C4
:101C50001A605A609A60DA603B4600221A605A6045
:101C60001D4B1E4A1A601C4B1D4A5A601A4B00221B
:101C70009A60194B40F2E732DA60174B00221A6182
:101C8000154B00229A61144805F08CFC0346002B8A
:101C900001D000F015F94FF48053BB6007F1080341
:101CA00019460D4805F046FE0346002B01D000F012
:101CB00007F900233B6000237B603B46194606483A
:101CC00006F06CF80346002B01D000F0F9F800BFD5
:101CD0001837BD4680BD00BFD80300200004004077
:101CE0000077010080B588B000AF3B1D00221A606C
:101CF0005A609A60DA601A615A619A611E4B1F4AF3
:101D00001A601D4B01225A601B4B00229A601A4B2D
:101D10000422DA60184B10221A61174B40225A61D4
:101D2000154B80229A61144B0022DA61124B00227B
:101D30001A62114B00225A620F4B00229A62102342
:101D40007B601023BB601023FB6010233B611023DA
:101D50007B611023BB611023FB613B1D19460648C4
:101D600004F0B0FD0346002B01D000F0A9F800BF3D
:101D70002037BD4680BD00BF20040020400100A0E8
:101D800080B58EB000AF07F1240300221A605A60BC
:101D90009A60DA601A6100233B62474B1B6B464A2C
:101DA00043F020031363444B1B6B03F020033B629F
:101DB0003B6A0023FB61404B1B6B3F4A43F08003AF
:101DC00013633D4B1B6B03F08003FB61FB69002336
:101DD000BB61394B1B6B384A43F004031363364B2A
:101DE0001B6B03F00403BB61BB6900237B61324BB7
:101DF0001B6B314A43F0010313632F4B1B6B03F042
:101E000001037B617B6900233B612B4B1B6B2A4ADF
:101E100043F002031363284B1B6B03F002033B6187
:101E20003B690023FB60244B1B6B234A43F04003B8
:101E30001363214B1B6B03F04003FB60FB68002323
:101E4000BB601D4B1B6B1C4A43F0100313631A4B02
:101E50001B6B03F01003BB60BB6800237B60164B59
:101E60001B6B154A43F008031363134B1B6B03F002
:101E700008037B607B6881237B624FF48813BB621D
:101E80000023FB6207F1240319460C4802F040FFCF
:101E900000220021062002F0BAFA062002F0D3FA4E
:101EA00000220021172002F0B2FA172002F0CBFA2C
:101EB00000BF3837BD4680BD0038024000000240F8
:101EC00080B400AF72B600BFFEE7000080B483B0FC
:101ED00000AF00237B60104B5B6C0F4A43F48043E0
:101EE00053640D4B5B6C03F480437B607B68002381
:101EF0003B60094B1B6C084A43F080531364064B4C
:101F00001B6C03F080533B603B6800BF0C37BD4641
:101F10005DF8047B704700BF0038024080B485B094
:101F200000AF78607B681B680B4A93420DD1002399
:101F3000FB600A4B1B6B094A43F400031363074B16
:101F40001B6B03F40003FB60FB6800BF1437BD4646
:101F50005DF8047B704700BF00B0024000380240CB
:101F600080B58AB000AF786007F1140300221A60D0
:101F70005A609A60DA601A617B681B68294A93424A
:101F80004BD100233B61284B1B6B274A43F00403D2
:101F90001363254B1B6B03F004033B613B69002378
:101FA000FB60214B1B6B204A43F0010313631E4B64
:101FB0001B6B03F00103FB60FB684FF400737B6154
:101FC0001223BB610023FB6103233B6204237B627A
:101FD00007F114031946154802F09AFE4FF4807376
:101FE0007B611223BB610023FB6103233B6204235B
:101FF0007B6207F1140319460D4802F089FE0023A5
:10200000BB60094B1B6C084A43F400031364064B86
:102010001B6C03F40003BB60BB6800BF2837BD46E0
:1020200080BD00BF005C0040003802400008024054
:102030000000024080B59AB000AF786007F1540309
:1020400000221A605A609A60DA601A6107F124036C
:1020500030220021184606F0E6FF7B681B68814AA3
:10206000934240F0FA8008237B6231237B63022392
:10207000FB630023BB6407F12403184604F062FAF3
:102080000346002B01D0FFF71BFF00233B62764B7A
:102090005B6C754A43F080635364734B5B6C03F075
:1020A00080633B623B6A0023FB616F4B1B6B6E4A94
:1020B00043F0200313636C4B1B6B03F02003FB61A5
:1020C000FB690023BB61684B1B6B674A43F001034C
:1020D0001363654B1B6B03F00103BB61BB690023FA
:1020E0007B61614B1B6B604A43F0020313635E4BE1
:1020F0001B6B03F002037B617B6900233B615A4B3E
:102100001B6B594A43F040031363574B1B6B03F09F
:1021100040033B613B690023FB60534B1B6B524AFE
:1021200043F004031363504B1B6B03F00403FB6089
:10213000FB680023BB604C4B1B6B4B4A43F008030E
:102140001363494B1B6B03F00803BB60BB684FF480
:1021500080637B650223BB650023FB6500233B6630
:102160000E237B6607F154031946404802F0D0FD68
:1021700041F658037B650223BB650023FB65002302
:102180003B660E237B6607F154031946384802F07C
:10219000BFFD03237B650223BB650023FB65002392
:1021A0003B6609237B6607F154031946314802F068
:1021B000AFFD4FF470637B650223BB650023FB65B5
:1021C00000233B660E237B6607F15403194629481A
:1021D00002F09EFD4FF40C637B650223BB65002378
:1021E000FB6500233B660E237B6607F1540319460B
:1021F000214802F08DFD4FF498637B650223BB6597
:102200000023FB6500233B660E237B6607F1540326
:1022100019461A4802F07CFD48237B650223BB6502
:102220000023FB6500233B660E237B6607F1540306
:102230001946134802F06CFD4FF4A0537B6502234E
:10224000BB650023FB6500233B6609237B6607F122
:1022500054031946084802F05BFD00BF6837BD46CD
:1022600080BD00BF006801400038024000140240F9
:102270000000024000040240001802400008024032
:10228000000C024080B58AB000AF786007F11403FB
:1022900000221A605A609A60DA601A617B681B68D3
:1022A000194A93422CD100233B61184B5B6C174AAF
:1022B00043F480135364154B5B6C03F480133B6150
:1022C0003B690023FB60114B1B6B104A43F020035A
:1022D00013630E4B1B6B03F02003FB60FB684FF492
:1022E00060737B610223BB610023FB6103233B62BC
:1022F00005237B6207F114031946054802F008FD27
:1023000000BF2837BD4680BD005001400038024064
:102310000014024080B582B000AF78607B681B6813
:10232000084A93420AD1084B5B6C074A23F4801396
:1023300053644FF46071054802F096FE00BF083701
:10234000BD4680BD005001400038024000140240EC
:1023500080B584B000AF78607B681B680E4A9342FA
:1023600015D10023FB600D4B1B6C0C4A43F002039C
:1023700013640A4B1B6C03F00203FB60FB68002232
:1023800000211D2002F043F81D2002F05CF800BF80
:102390001037BD4680BD00BF000400400038024039
:1023A00080B586B000AF3B1D00221A605A609A606B
:1023B000DA601A613B4B1B68002B6FD1394B01224D
:1023C0001A6000233B60384B9B6B374A43F0010394
:1023D0009363354B9B6B03F001033B603B684FF607
:1023E0003F037B600223BB600023FB6003233B6150
:1023F0000C237B613B1D19462C4802F089FC01230C
:102400007B600223BB600023FB6003233B610C2342
:102410007B613B1D1946264802F07AFC48F23313D3
:102420007B600223BB600023FB6003233B610C2322
:102430007B613B1D19461F4802F06AFC4FF683730F
:102440007B600223BB600023FB6003233B610C2302
:102450007B613B1D1946184802F05AFC4CF203738D
:102460007B600223BB600023FB6003233B610C23E2
:102470007B613B1D1946114802F04AFC60237B60DA
:102480000223BB600023FB6003233B610C237B61C1
:102490003B1D19460A4802F03BFC00E000BF18371C
:1024A000BD4680BD64060020003802400014024092
:1024B000000802400018024000100240000C0240D8
:1024C0000004024080B582B000AF7860FFF768FF7B
:1024D00000BF0837BD4680BD80B400AFFEE780B4C2
:1024E00000AFFEE780B400AFFEE780B400AFFEE7C8
:1024F00080B400AFFEE780B400AF00BFBD465DF81A
:10250000047B704780B400AF00BFBD465DF8047B1C
:10251000704780B400AF00BFBD465DF8047B7047D4
:1025200080B500AF01F054FE00BF80BD80B500AFA4
:10253000044B1B680133034A1360012002F0BAFE0A
:1025400000BF80BD6006002080B500AF044B1B6853
:102550000133034A1360802002F0ACFE00BF80BD4F
:102560005C06002080B500AF044B1B680133034AB2
:102570001360034805F0D6F800BF80BD5806002060
:10258000D803002080B400AF01231846BD465DF893
:10259000047B704780B582B000AF7860396006F088
:1025A00095FD034616221A604FF0FF331846083790
:1025B000BD4680BD80B582B000AF78604FF0FF317E
:1025C0007868FFF7E7FFFEE780B586B000AFF860F8
:1025D000B9607A6000237B610AE0AFF300800146B6
:1025E000BB685A1CBA60CAB21A707B6901337B613E
:1025F0007A697B689A42F0DB7B6818461837BD46DB
:1026000080BD80B586B000AFF860B9607A60002305
:102610007B6109E0BB685A1CBA601B781846AFF3AF
:1026200000807B6901337B617A697B689A42F1DBC8
:102630007B6818461837BD4680BD80B483B000AFB4
:1026400078604FF0FF3318460C37BD465DF8047BC9
:10265000704780B483B000AF786039603B684FF456
:1026600000525A60002318460C37BD465DF8047BC3
:10267000704780B483B000AF7860012318460C37F0
:10268000BD465DF8047B704780B485B000AFF8604C
:10269000B9607A60002318461437BD465DF8047BA4
:1026A0007047000080B586B000AF7860144A154BC3
:1026B000D31A7B617B693B61134B1B68002B02D1F2
:1026C000114B124A1A60104B1A687B6813443A691E
:1026D0009A4207D206F0FAFC03460C221A604FF029
:1026E000FF3309E0084B1B68FB60074B1A687B68E7
:1026F0001344054A1360FB6818461837BD4680BD71
:10270000000003200004000068060020100A0020DA
:1027100080B400AF064BD3F88830054A43F4700309
:10272000C2F8883000BFBD465DF8047B704700BF2B
:1027300000ED00E0DFF834D00D480E490E4A0023CA
:1027400002E0D458C4500433C4188C42F9D30B4A65
:102750000B4C002301E013600432A242FBD3FFF7CD
:10276000D7FF06F0B9FCFEF753FC704700000320CA
:10277000000000202802002098FB0008280200200A
:10278000100A0020FEE780B500AF00F05DFACA2015
:1027900000F05DF9C32000F067F9082000F064F94B
:1027A000502000F061F9CF2000F051F9002000F036
:1027B0005BF9C12000F058F9302000F055F9ED2008
:1027C00000F045F9642000F04FF9032000F04CF9C7
:1027D000122000F049F9812000F046F9E82000F0CD
:1027E00036F9852000F040F9002000F03DF978200E
:1027F00000F03AF9CB2000F02AF9392000F034F942
:102800002C2000F031F9002000F02EF9342000F0E7
:102810002BF9022000F028F9F72000F018F9202009
:1028200000F022F9EA2000F012F9002000F01CF973
:10283000002000F019F9B12000F009F9002000F0A3
:1028400013F91B2000F010F9B62000F000F90A205F
:1028500000F00AF9A22000F007F9C02000F0F7F814
:10286000102000F001F9C12000F0F1F8102000F074
:10287000FBF8C52000F0EBF8452000F0F5F8152036
:1028800000F0F2F8C72000F0E2F8902000F0ECF839
:10289000362000F0DCF8C82000F0E6F8F22000F066
:1028A000D6F8002000F0E0F8B02000F0D0F8C22008
:1028B00000F0DAF8B62000F0CAF80A2000F0D4F8E8
:1028C000A72000F0D1F8272000F0CEF8042000F077
:1028D000CBF82A2000F0BBF8002000F0C5F800205B
:1028E00000F0C2F8002000F0BFF8EF2000F0BCF8C4
:1028F0002B2000F0ACF8002000F0B6F8002000F02B
:10290000B3F8012000F0B0F83F2000F0ADF8F62059
:1029100000F09DF8012000F0A7F8002000F0A4F8D6
:10292000062000F0A1F82C2000F091F8C82000F05B
:1029300079FA262000F08BF8012000F095F8E020CD
:1029400000F085F80F2000F08FF8292000F08CF8B7
:10295000242000F089F80C2000F086F80E2000F00A
:1029600083F8092000F080F84E2000F07DF87820F0
:1029700000F07AF83C2000F077F8092000F074F8B5
:10298000132000F071F8052000F06EF8172000F019
:102990006BF8112000F068F8002000F065F8E120E5
:1029A00000F055F8002000F05FF8162000F05CF809
:1029B0001B2000F059F8042000F056F8112000F018
:1029C00053F8072000F050F8312000F04DF8332084
:1029D00000F04AF8422000F047F8052000F044F8E3
:1029E0000C2000F041F80A2000F03EF8282000F00A
:1029F0003BF82F2000F038F80F2000F035F81120B8
:102A000000F025F8C82000F00DFA292000F01FF88A
:102A10002C2000F01CF800BF80BD80B500AF00F096
:102A200013F90321D32000F02CF803469BB218467B
:102A300080BD80B500AF292000F009F800BF80BD3F
:102A400080B500AF282000F002F800BF80BD80B53F
:102A500082B000AF0346FB71FB79184600F08EF997
:102A600000BF0837BD4680BD80B582B000AF0346C9
:102A7000FB80FB88184600F05FF900BF0837BD46B1
:102A800080BD80B582B000AF03460A46FB80134686
:102A90007B717A79FB881146184600F091F903465C
:102AA00018460837BD4680BD80B400AFF0231846F5
:102AB000BD465DF8047B704780B400AF4FF4A0734F
:102AC0001846BD465DF8047B7047000080B500AF36
:102AD000194804F028FC0346002B2BD1164B174A4B
:102AE0001A60154B1822DA61134B00229A60124BC0
:102AF00000225A61104B00221A610F4B00229A6289
:102B00000D4B0722DA620C4B0022DA600A4B0022DE
:102B10001A62094B4FF400729A61074B00225A6205
:102B2000054B4FF482725A60034800F053F8024894
:102B300003F059FF00BF80BD6C060020005001402B
:102B400080B584B000AF0346FB710023FB73FB79B3
:102B50009AB2094B1B6807F10801084804F030F9E4
:102B60000346FB73FB7B002B01D000F027F8BB680A
:102B700018461037BD4680BD480000206C06002076
:102B800080B584B000AF0346FB800023FB73094B84
:102B90001B68B91D0122084803F0D6FF0346FB73EA
:102BA000FB7B002B01D000F009F800BF1037BD46B9
:102BB00080BD00BF480000206C06002080B500AF3B
:102BC000034803F099FFFFF781FF00BF80BD00BFFE
:102BD0006C06002080B58AB000AF786000233B61AE
:102BE000174B5B6C164A43F480135364144B5B6CB5
:102BF00003F480133B613B690023FB60104B1B6BAC
:102C00000F4A43F0200313630D4B1B6B03F02003AB
:102C1000FB60FB684FF460737B610223BB6102239E
:102C2000FB6101233B6205237B6207F11403194614
:102C3000044802F06DF800BF2837BD4680BD00BFD4
:102C4000003802400014024080B588B000AF364B17
:102C50001B78002B64D1344B01221A700023BB6017
:102C6000324B1B6B314A43F0080313632F4B1B6B32
:102C700003F00803BB60BB684FF40053FB60012303
:102C80003B6100237B610223BB6107F10C03194602
:102C9000274802F03DF800237B60244B1B6B234A3E
:102CA00043F008031363214B1B6B03F008037B60A5
:102CB0007B684FF48053FB6001233B6100237B6101
:102CC0000223BB6107F10C031946194802F020F8F2
:102CD00000233B60154B1B6B144A43F00403136342
:102CE000124B1B6B03F004033B603B680423FB6047
:102CF00001233B6100237B610223BB6107F10C03CD
:102D000019460C4802F004F800220421094802F098
:102D1000B7FA01220421074802F0B2FAFFF7D6FE03
:102D200000BF2037BD4680BDC406002000380240E9
:102D3000000C02400008024080B582B000AF03469C
:102D4000FB8001224FF400510A4802F099FA002258
:102D50000421094802F094FAFB881846FFF710FF97
:102D600001220421044802F08BFA00BF0837BD4657
:102D700080BD00BF000C02400008024080B582B058
:102D800000AF0346FB7100224FF400510A4802F0E5
:102D900077FA00220421094802F072FAFB799BB20B
:102DA0001846FFF7EDFE01220421044802F068FAFC
:102DB00000BF0837BD4680BD000C0240000802403D
:102DC00080B584B000AF03460A46FB8013467B7192
:102DD0000023FB6000220421104802F051FA002277
:102DE0004FF400510E4802F04BFAFB881846FFF7EB
:102DF000C7FE7B791846FFF7A3FEF86001224FF467
:102E00000051074802F03CFA01220421034802F075
:102E100037FAFB6818461037BD4680BD00080240EF
:102E2000000C024080B582B000AF7860786801F095
:102E3000EFF900BF0837BD4680BD000080B500AF88
:102E40002D4B2E4A1A602C4B09225A612A4B012223
:102E50009A61294B1D22DA61274B03221A62264B05
:102E600040F20D125A62244B40F243129A62224BF6
:102E700040F21712DA62204B40F247121A631E4BDF
:102E8000002283F836201C4B002283F834201A4B92
:102E9000002283F835201A4B08221A60184BC022F2
:102EA0001A61174B04229A61154B4FF400325A6293
:102EB000134803F047FB104B00225A600E4B0022D0
:102EC0009A600D4B0022DA600B4B00221A6100F071
:102ED00075FD094802F0D2FB0A4B0B4A1A60094BF8
:102EE0001B681B68984700F057FF084800F0A4F8DB
:102EF0000023184680BD00BFC806002000680140BE
:102F0000B0070020FC070020100000204C0000202B
:102F100080B500AF034B1B689B6A98470346184671
:102F200080BD00BFFC07002080B500AF034B1B68CD
:102F3000DB6A98470346184680BD00BFFC070020A7
:102F400080B590B000AF03463960FB800023FB6082
:102F5000FFF7DEFF03463B6100237B61FFF7E4FFE1
:102F60000346BB610023FB613B683B63FF233B627D
:102F700000237B62002387F83C30002387F83D3034
:102F8000002387F83E304FF4C063BB620723FB6227
:102F9000FFF7BEFF03467B63FFF7C6FF0346BB6335
:102FA000FA8807F10C031946144802F037FCFA8836
:102FB000134913465B0013449B000B4404334FF04A
:102FC000FF321A60FA880E4913465B0013449B00D7
:102FD0000B4408330B4A1A60FA88094913465B0010
:102FE00013449B000B444FF07F421A60034802F0E9
:102FF00053FC00BF4037BD4680BD00BFC80600205F
:10300000E40700204C00002080B483B000AF78605B
:10301000074B1A68074913465B0013449B000B4497
:103020007A681A6000BF0C37BD465DF8047B7047B4
:10303000E0070020E407002080B483B000AF786090
:10304000084B1A68084913465B0013449B000B4465
:1030500008337A681A6000BF0C37BD465DF8047B00
:10306000704700BFE0070020E407002080B400AFF5
:10307000074B1A68074913465B0013449B000B4437
:1030800008331B681846BD465DF8047B704700BFD7
:10309000E0070020E4070020F0B585B002AF7860BB
:1030A0000F4B1C680E4B1B680E4A342101FB03F3C7
:1030B00013445C331B681E46FFF72AFF0546FFF7E3
:1030C00033FF02467B6801930023009313462A4690
:1030D0003146204600F028FE00BF0C37BD46F0BD4B
:1030E000E0070020C806002090B585B000AF7860EA
:1030F0002D4B1A682D4913465B0013449B000B446B
:103100001B68FB60284B1968274B1A6827480B4639
:103110005B000B449B0003440433196823481346A7
:103120005B0013449B00034419601F4B1A681F493E
:1031300013465B0013449B000B4408331B68DA887A
:103140007B689BB212FB03F39CB2FFF7E1FE0346E0
:1031500099B2154B1A68154813465B0013449B003F
:10316000034408331B68DB880A462146002000F030
:103170002BFB0D4B1A680D4913465B0013449B0053
:103180000B44FA681A60084B1A68084913465B003A
:1031900013449B000B441B681846FFF735FF00BF24
:1031A0001437BD4690BD00BFE0070020E4070020B3
:1031B00090B583B000AF0346FB800B46BB8013463F
:1031C000FB701B4B1A681B4913465B0013449B00A2
:1031D0000B4408331B681968FB78A3F12000144BDB
:1031E0001A68144C13465B0013449B0023440833B5
:1031F0001B68DB8803FB00F00D4B1A680D4C13466F
:103200005B0013449B00234408331B689B880733EF
:10321000002B00DA0733DB1000FB03F3CA18B98870
:10322000FB88184600F0C6FC00BF0C37BD4690BDB9
:10323000E0070020E4070020B0B588B000AFBA6016
:103240001A460346FB810B46BB811346FB710123E3
:10325000FB830023BB830023BB6100233B61BB686E
:103260007B6102E0BB690133BB617B695A1C7A61F7
:103270001B78002BF6D1FFF74BFE01464B4B1A682B
:103280004B4813465B0013449B00034408331B6800
:103290009B88B1FBF3F33B61FB79032B1CD0032B21
:1032A00033DC012B02D0022B19D02EE03A69BB6926
:1032B000D11A3E4B1A683E4813465B0013449B00EC
:1032C000034408331B689B8801FB03F35B089AB235
:1032D000FB891344FB831BE0FB89FB8318E03A69FD
:1032E000BB69D31A99B2314B1A68314813465B0057
:1032F00013449B00034408331B689B8811FB03F3B2
:103300009AB2FB891344FB8302E0FB89FB8300BF75
:103310001AE0BB681A78B989FB8B1846FFF748FF9B
:10332000224B1A68224913465B0013449B000B444E
:1033300008331B689A88FB8B1344FB83BB680133FB
:10334000BB60BB8B0133BB83BB681B78002B14BFF6
:1033500001230023DCB2FFF7DBFDB98B134B1A68A6
:10336000134D13465B0013449B002B4408331B682A
:103370009B8801FB03F3C31A99B20C4B1A680C48E3
:1033800013465B0013449B00034408331B689B886F
:1033900099422CBF01230023DBB22340DBB2002B78
:1033A000B7D100BF00BF2037BD46B0BDE007002049
:1033B000E407002080B582B000AF03463960FB808F
:1033C000FFF754FE0346DB88FA8812FB03F399B239
:1033D00003233A680020FFF72FFF00BF0837BD46E0
:1033E00080BD0000B0B586B002AF0346FB800B463F
:1033F000BB8013467B800023FB60164B1B68164A7C
:10340000342101FB03F313445C331C68FFF780FD98
:103410000246BB8803FB02F2FB8813449B00234453
:10342000FB600C4B1868F9687C880A4B1A680B4DD6
:1034300013465B0013449B002B441B68019300233D
:1034400000930123224600F06FFC00BF1037BD46F9
:10345000B0BD00BFE0070020C8060020E407002040
:1034600090B58BB000AF0446084611461A46234675
:10347000FB800346BB800B467B8013463B800023CA
:103480003B820023FB810023FB840023BB840023B9
:103490007B8400233B840023FB830023BB83002326
:1034A0007B8300233B830023FB820023BB8200231A
:1034B0007B827A88FB88D31A002BB8BF5B423B82A1
:1034C0003A88BB88D31A002BB8BF5B42FB81FB88CC
:1034D000FB84BB88BB847A88FB889A4204D301238F
:1034E0007B8401233B8405E04FF6FF737B844FF61A
:1034F000FF733B843A88BB889A4204D30123FB8341
:103500000123BB8305E04FF6FF73FB834FF6FF7388
:10351000BB83B7F91020B7F90E309A4210DB0023B5
:103520007B840023BB833B8A7B83B7F91030DA0F9F
:1035300013445B103B83FB89FB823B8ABB820FE019
:1035400000233B840023FB83FB897B83B7F90E3088
:10355000DA0F13445B103B833B8AFB82FB89BB82FF
:1035600000237B8237E0F88CB98C204B1A68204C02
:1035700013465B0013449B0023441B681A4600F06B
:10358000F3FA3A8BFB8A13449BB23B83B7F91820BA
:10359000B7F91A309A420EDB3A8B7B8BD31A9BB267
:1035A0003B83FA8C7B8C13449BB2FB84BA8CFB8BE1
:1035B00013449BB2BB84FA8C3B8C13449BB2FB84B8
:1035C000BA8CBB8B13449BB2BB84B7F912309BB24D
:1035D00001339BB27B82B7F91220B7F914309A42BB
:1035E000C1DD00BF00BF2C37BD4690BDE007002005
:1035F000E407002090B587B000AF0346FB800B4680
:10360000BB8013467B807B885B00C3F103037B6137
:1036100000233B617B88FB60C7E03B699AB2FB8873
:10362000134498B2FB689BB2BA88D31A99B2644B20
:103630001A68644C13465B0013449B0023441B68C8
:103640001A4600F091FA3B699BB2FA88D31A98B2F5
:10365000FB689BB2BA88D31A99B2594B1A68594C75
:1036600013465B0013449B0023441B681A4600F07A
:103670007BFAFB689AB2FB88134498B23B699BB211
:10368000BA88D31A99B24E4B1A684E4C13465B0057
:1036900013449B0023441B681A4600F065FAFB683C
:1036A0009BB2FA88D31A98B23B699BB2BA88D31AF4
:1036B00099B2434B1A68434C13465B0013449B007A
:1036C00023441B681A4600F04FFA3B699AB2FB8804
:1036D000134498B2FB689AB2BB88134499B2384B32
:1036E0001A68384C13465B0013449B0023441B6844
:1036F0001A4600F039FA3B699BB2FA88D31A98B29D
:10370000FB689AB2BB88134499B22D4B1A682D4CB2
:1037100013465B0013449B0023441B681A4600F0C9
:1037200023FAFB689AB2FB88134498B23B699AB2B9
:10373000BB88134499B2224B1A68224C13465B0093
:1037400013449B0023441B681A4600F00DFAFB68E3
:103750009BB2FA88D31A98B23B699AB2BB881344D9
:1037600099B2174B1A68174C13465B0013449B0021
:1037700023441B681A4600F0F7F97B69002B06DA30
:103780003B699A007B69134406337B610AE03A691E
:10379000FB68D31A9A007B6913440A337B61FB6888
:1037A000013BFB603B6901333B613A69FB689A422C
:1037B0007FF633AF00BF00BF1C37BD4690BD00BFD2
:1037C000E0070020E40700202DE9F04186B002AFB9
:1037D0000446084611461A462346FB800346BB8032
:1037E0000B467B8013463B800023FB60204B1A680E
:1037F000204913465B0013449B000B441B6818468A
:10380000FFF702FC1A4B1B681B4A342101FB03F330
:1038100013445C331C68FFF77BFB0246BB8803FB49
:1038200002F2FB8813449B002344FB60104B1C688E
:10383000FD687E88B7F80080FFF76AFB02467B8848
:10384000D11A0B4B1A680B4813465B0013449B00BC
:1038500003441B68019300914346324629462046A3
:1038600000F062FA00BF1037BD46BDE8F08100BF2E
:10387000E0070020E4070020C806002080B586B0DD
:1038800000AF0346FB800B46BB8013467B807B88E2
:103890005B00C3F103037B6100233B617B88FB601A
:1038A000444B1A68444913465B0013449B000B4485
:1038B0001B681846FFF7A8FB61E0FB68002B21D0CE
:1038C000FB689BB2FA88D31A98B23B699AB2BB885C
:1038D000134499B2FB689BB25B009BB21A46FFF798
:1038E00081FDFB689BB2FA88D31A98B23B699BB200
:1038F000BA88D31A99B2FB689BB25B009BB21A4696
:10390000FFF770FD3B69002B21D03B699BB2FA8821
:10391000D31A98B2FB689BB2BA88D31A99B23B69A2
:103920009BB25B009BB21A46FFF75CFD3B699BB202
:10393000FA88D31A98B2FB689AB2BB88134499B23A
:103940003B699BB25B009BB21A46FFF74BFD7B695C
:10395000002B06DA3B699A007B69134406337B61CE
:103960000AE03A69FB68D31A9A007B6913440A3368
:103970007B61FB68013BFB603B6901333B613A695A
:10398000FB689A4299D90B4B1A680B4913465B00A6
:1039900013449B000B441B681846FFF735FB7A88DD
:1039A000B988FB881846FFF725FE00BF1837BD46CB
:1039B00080BD00BFE0070020E407002080B58EB086
:1039C00000AF00233B62614B5B6C604A43F0806355
:1039D00053645E4B5B6C03F080633B623B6A002385
:1039E000FB615A4B1B6B594A43F400031363574B5B
:1039F0001B6B03F40003FB61FB690023BB61534BAA
:103A00001B6B524A43F001031363504B1B6B03F0D3
:103A10000103BB61BB6900237B614C4B1B6B4B4AB1
:103A200043F002031363494B1B6B03F002037B61FA
:103A30007B6900233B61454B1B6B444A43F0040305
:103A40001363424B1B6B03F004033B613B69002390
:103A5000FB603E4B1B6B3D4A43F0080313633B4B3B
:103A60001B6B03F00803FB60FB680023BB60374B54
:103A70001B6B364A43F020031363344B1B6B03F07C
:103A80002003BB60BB6800237B60304B1B6B2F4A5D
:103A900043F0400313632D4B1B6B03F040037B602B
:103AA0007B6841F658037B620223BB620023FB6202
:103AB00002233B630E237B6307F12403194624484A
:103AC00001F026F94FF470637B6207F12403194675
:103AD000204801F01DF94FF498637B6207F124033D
:103AE00019461D4801F014F948237B6207F12403AD
:103AF00019461A4801F00CF94FF480637B6207F114
:103B000024031946164801F003F94FF40C637B6255
:103B100007F124031946134801F0FAF803237B62E6
:103B200009237B6307F1240319460A4801F0F0F8E2
:103B30004FF4A0537B6207F124031946094801F0B2
:103B4000E7F800BF3837BD4680BD00BF00380240EF
:103B5000000002400004024000080240000C024045
:103B60000014024000180240B0B582B000AF034616
:103B70003A60FB800B46BB800C4B1B680C4A34211F
:103B800001FB03F313445C331C68BD88FFF7C0F9E5
:103B9000034603FB05F2FB8813449B0023441A46AB
:103BA0003B68136000BF0837BD46B0BDE00700208A
:103BB000C806002080B588B000AF03463A60FB809D
:103BC0000B46BB800023FB610023BB6100237B61AC
:103BD000534B1A68534913465B0013449B000B4434
:103BE00008331B68DB887B824D4B1A684D491346AE
:103BF0005B0013449B000B4408331B689B883B828B
:103C00003B8A0733002B00DA0733DB10DBB2DB0023
:103C1000DAB23B8ADBB2D31AFB730023FB6176E096
:103C20003B8A0733002B00DA0733DB101A46FB69A7
:103C300002FB03F33A681344BB603B8A0733002B53
:103C400000DA0733DB10012B02D0022B04D00CE08A
:103C5000BB681B787B6116E0BB681B781B02BA68E7
:103C60000132127813437B610DE0BB681B781A04A4
:103C7000BB6801331B781B021343BA680232127807
:103C800013437B6100BF0023BB6136E03A8ABB6906
:103C9000D21AFB7B1344013B012202FA03F31A46BA
:103CA0007B691340002B12D0BB699AB2FB88134486
:103CB00098B21B4B1A681B4913465B0013449B00C8
:103CC0000B441A68BB881946FFF74EFF12E0BB6928
:103CD0009AB2FB88134498B2114B1A6811491346E3
:103CE0005B0013449B000B4404331A68BB881946DD
:103CF000FFF73AFFBB690133BB613B8ABA699A425D
:103D0000C4D3BB880133BB80FB690133FB617B8A71
:103D1000FA699A4284D300BF00BF2037BD4680BDF8
:103D2000E0070020E407002080B586B002AFF8600D
:103D3000B9607A603B60164B4FF440325A60144BC6
:103D400000229A60124ABB69D360114B114A1A6073
:103D50000F4800F051FD0346002B15D1F9680C48BF
:103D600000F0A8FE0346002B0ED1BA683B68009312
:103D70007B68F969064800F088FD0346002B03D1F3
:103D80000A21034800F0ACFD00BF1037BD4680BDDE
:103D90007007002000B0024080B500AF294B2A4ACE
:103DA0001A602A4B02221A60284B07225A60274BBE
:103DB00004229A60254B0722DA60244B02221A6102
:103DC000224B02225A61214B02229A611D4B012291
:103DD0005A601C4B00229A601A4B0422DA60194B7D
:103DE00010221A61174B40225A61164B4FF4C072D1
:103DF0009A61144B0022DA61124B4FF400621A628E
:103E0000104B00225A620F4B4FF400529A6200216D
:103E10000C4800F07FF80D490A4802F053FD0346B4
:103E2000002B03D00A4B01221A7002E0084B00223B
:103E30001A7040F26A5000F00DF8054B1B781846D6
:103E400080BD00BF00080020400100A03408002011
:103E50005400002080B584B000AF78600023FB6080
:103E60002A4B01221A60294B08225A60274B012253
:103E70009A60264B0022DA604FF6FF7223492448ED
:103E800002F054FD012000F0C3F9204B02221A6019
:103E90001E4B08225A601D4B01229A601B4B0022C8
:103EA000DA604FF6FF721949194802F03FFD174BCF
:103EB00003221A60154B08225A60144B04229A60A0
:103EC000124B0022DA604FF6FF721049104802F0E0
:103ED0002DFD4FF40C73FB600C4B04221A600B4B4E
:103EE00008225A60094B01229A60FB68074AD36096
:103EF0004FF6FF720549064802F018FD796804483C
:103F000002F049FD00BF1037BD4680BD50080020BB
:103F10000008002080B590B000AF786039607B6801
:103F2000002B00F0EC800023BB62774B9B6B764A42
:103F300043F001039363744B9B6B03F00103BB627B
:103F4000BB6A00237B62704B1B6B6F4A43F4800398
:103F500013636D4B1B6B03F480037B627B6A00234E
:103F60003B62694B1B6B684A43F002031363664B69
:103F70001B6B03F002033B623B6A0023FB61624B55
:103F80001B6B614A43F0040313635F4B1B6B03F02D
:103F90000403FB61FB690023BB615B4B1B6B5A4A4B
:103FA00043F008031363584B1B6B03F00803BB611A
:103FB000BB6900237B61544B1B6B534A43F01003D6
:103FC0001363514B1B6B03F010037B617B69002370
:103FD0003B614D4B1B6B4C4A43F0200313634A4B30
:103FE0001B6B03F020033B613B690023FB60464BE6
:103FF0001B6B454A43F040031363434B1B6B03F0B9
:104000004003FB60FB6802233B630223BB63002386
:104010007B630C23FB636023FB6207F12C031946CF
:104020003A4800F075FE0123FB6207F12C031946A4
:10403000374800F06DFE4CF20373FB6207F12C036E
:104040001946344800F064FE4FF68373FB6207F1B3
:104050002C031946304800F05BFE4FF63F03FB622D
:1040600007F12C0319462D4800F052FE48F2331395
:10407000FB6207F12C031946294800F049FE294B41
:1040800000225A60274B80229A60264B4FF4007220
:10409000DA60244B4FF480621A61224B4FF4805255
:1040A0005A61204B4FF480429A611E4B0022DA6124
:1040B0001C4B4FF400321A621A4B00225A62194B01
:1040C00003229A62174B0022DA62164B00221A630F
:1040D000144B154A1A607B68124A1A63114A7B68AE
:1040E0009363104800F078FA0E4800F0C7F90022F8
:1040F0000F21382000F08BF9382000F0A4F900BF20
:104100004037BD4680BD00BF003802400004024079
:1041100000080240000C024000100240001402405F
:1041200000180240600800201064024080B500AF13
:104130000E4B1B680D4A43F4007313600B4B1B6856
:104140000A4A43F480631360084B1B68074A43F430
:1041500080731360032000F04FF90F2000F008F87F
:10416000FDF7B4FE0023184680BD00BF003C0240AE
:1041700080B582B000AF7860124B1A68124B1B7882
:1041800019464FF47A73B3FBF1F3B2FBF3F318461D
:1041900000F067F90346002B01D001230EE07B6895
:1041A0000F2B0AD8002279684FF0FF3000F02FF96A
:1041B000064A7B681360002300E001231846083795
:1041C000BD4680BD0C0000205C000020580000208F
:1041D00080B400AF064B1B781A46064B1B6813448D
:1041E000044A136000BFBD465DF8047B704700BF02
:1041F0005C000020C008002080B400AF034B1B68A7
:104200001846BD465DF8047B704700BFC00800201B
:1042100080B584B000AF7860FFF7EEFFB8607B68D0
:10422000FB60FB68B3F1FF3F05D00A4B1B781A46D1
:10423000FB681344FB6000BFFFF7DEFF0246BB686C
:10424000D31AFA689A42F7D800BF00BF1037BD46AC
:1042500080BD00BF5C00002080B485B000AF7860F6
:104260007B6803F00703FB600C4BDB68BB60BA683C
:104270004FF6FF031340BB60FB681A02BB68134391
:1042800043F0BF6343F40033BB60044ABB68D360B0
:1042900000BF1437BD465DF8047B704700ED00E0B9
:1042A00080B400AF044BDB681B0A03F00703184619
:1042B000BD465DF8047B704700ED00E080B483B03C
:1042C00000AF0346FB7197F90730002B0BDBFB793E
:1042D00003F01F02074997F907305B09012000FA34
:1042E00002F241F8232000BF0C37BD465DF8047B85
:1042F000704700BF00E100E080B483B000AF034628
:104300003960FB7197F90730002B0ADB3B68DAB2A2
:104310000C4997F907301201D2B20B4483F80023FD
:104320000AE03B68DAB20849FB7903F00F03043B6B
:104330001201D2B20B441A7600BF0C37BD465DF8AD
:10434000047B704700E100E000ED00E080B489B03C
:1043500000AFF860B9607A60FB6803F00703FB61A7
:10436000FB69C3F10703042B28BF0423BB61FB696E
:104370000433062B02D9FB69033B00E000237B6179
:104380004FF0FF32BB6902FA03F3DA43BB681A400D
:104390007B699A404FF0FF317B6901FA03F3D943FF
:1043A0007B680B40134318462437BD465DF8047BF9
:1043B0007047000080B582B000AF78607B68013B39
:1043C000B3F1807F01D301230FE00A4A7B68013BF0
:1043D00053600F214FF0FF30FFF78EFF054B002297
:1043E0009A60044B07221A60002318460837BD461E
:1043F00080BD00BF10E000E080B582B000AF786003
:104400007868FFF729FF00BF0837BD4680BD80B53B
:1044100086B000AF0346B9607A60FB7300237B610E
:10442000FFF73EFF78617A68B9687869FFF78EFF19
:10443000024697F90F3011461846FFF75DFF00BF9F
:104440001837BD4680BD80B582B000AF0346FB7112
:1044500097F907301846FFF731FF00BF0837BD4610
:1044600080BD80B582B000AF78607868FFF7A2FFAA
:10447000034618460837BD4680BD000080B586B0AB
:1044800000AF786000237B61FFF7B6FE38617B6880
:10449000002B01D1012399E07B68022283F83520AB
:1044A0007B68002283F834207B681B681A687B686D
:1044B0001B6822F001021A600FE0FFF79DFE024622
:1044C0003B69D31A052B08D97B6820225A657B6883
:1044D000032283F83520032378E07B681B681B6880
:1044E00003F00103002BE8D17B681B681B687B612C
:1044F0007A69384B13407B617B685A687B689B689C
:104500001A437B68DB681A437B681B691A437B6824
:104510005B691A437B689B691A437B68DB691A43B2
:104520007B681B6A13437A6913437B617B685B6A10
:10453000042B07D17B68DA6A7B681B6B13437A69AB
:1045400013437B617B681B687A691A607B681B6810
:104550005B697B617B6923F007037B617B685B6A36
:104560007A6913437B617B685B6A042B17D17B6894
:104570009B6A7A6913437B617B68DB6A002B0ED0F0
:10458000786800F0BDF80346002B08D07B68402215
:104590005A657B68012283F83520012316E07B6889
:1045A0001B687A695A61786800F074F80346FB600A
:1045B0007B68DB6D3F229A40FB689A607B68002233
:1045C0005A657B68012283F8352000231846183786
:1045D000BD4680BD3F8010F080B584B000AF7860EC
:1045E0007B68002B01D1012350E07B6893F83530C4
:1045F000DBB2022B01D1022348E07B681B681A68FA
:104600007B681B6822F001021A607B681B6800222D
:104610001A607B681B6800225A607B681B68002256
:104620009A607B681B680022DA607B681B68002246
:104630001A617B681B6821225A61786800F02AF8A9
:104640000346FB607B680022DA637B6800221A6401
:104650007B6800225A647B6800229A647B6800228F
:10466000DA647B6800221A657B68DB6D3F229A4022
:10467000FB689A607B6800225A657B68002283F899
:1046800035207B68002283F8342000231846103739
:10469000BD4680BD80B485B000AF78607B681B6884
:1046A000DBB2103B144AA2FB03231B09FB60134A35
:1046B000FB6813441B781A467B68DA65FB68032B9A
:1046C00009D97B681B6823F47F7323F003031A1D49
:1046D0007B689A6507E07B681B6823F47F7323F08F
:1046E00003037A6893657B689B6D18461437BD4653
:1046F0005DF8047B704700BFABAAAAAA7CF500084E
:1047000080B485B000AF78600023FB737B689B6A40
:10471000BB607B689B69002B1FD1BB68032B56D8FD
:1047200001A252F823F000BF394700084B470008A8
:1047300039470008CF4700087B68DB6A03F08073C5
:10474000002B46D00123FB7343E07B68DB6AB3F1A7
:10475000C07F40D10123FB733DE07B689B69B3F5CB
:10476000005F21D1BB68032B37D801A252F823F098
:1047700081470008874700088147000899470008DB
:104780000123FB7330E07B68DB6A03F08073002B4E
:1047900025D00123FB7322E07B68DB6AB3F1C07F85
:1047A0001FD10123FB731CE0BB68022B03D9BB683C
:1047B000032B03D018E00123FB7315E07B68DB6A51
:1047C00003F08073002B0ED00123FB730BE000BFBE
:1047D0000AE000BF08E000BF06E000BF04E000BF41
:1047E00002E000BF00E000BFFB7B18461437BD4667
:1047F0005DF8047B704700BF80B582B000AF786081
:104800007B68002B01D101233BE07B6893F83930B2
:10481000DBB2002B06D17B68002283F83820786851
:10482000FDF77CFB7B68022283F839207B681B68DC
:104830001B6823F440317B685A687B681B680A4315
:104840001A607B681B685B6B23F007017B689A68C2
:104850007B681B680A435A637B681B681B6C23F4E4
:104860007F5323F03F037A68D1687A6812680B435C
:1048700013647B680022DA637B68012283F83920A5
:10488000002318460837BD4680BD80B586B002AF0C
:10489000F860B9607A603B60FB6893F83830012BB0
:1048A00001D1022318E0FB68012283F83820FB685D
:1048B000022283F83920BB6900933B687A68B968A3
:1048C000F86800F089F9FB681B681A68FB681B68C8
:1048D00042F001021A60002318461037BD4680BD21
:1048E00080B586B000AF786039600023FB607B68DC
:1048F0001B681B6803F00103002B56D0FFF77CFCFC
:1049000078614BE07B681B685B68FB60FB6803F0C9
:104910002103002B23D0FB6803F02003002B05D0DC
:104920007B68DB6B43F002027B68DA63FB6803F0B1
:104930000103002B05D07B68DB6B43F001027B6831
:10494000DA637B681B6821229A607B68042283F803
:1049500039207B68002283F838200123A5E03B68DA
:10496000B3F1FF3F1AD0FFF747FC02467B69D31A29
:104970003A689A4202D33B68002B0FD17B68DB6B0D
:1049800043F020027B68DA637B68032283F83920D6
:104990007B68002283F83820032386E07B681B684D
:1049A0005B6803F00203002BACD07B681B68DB69FB
:1049B00003F020033B617B681B685B6A03F0200304
:1049C0003A6913433B613B69002B61D0FFF714FC4C
:1049D000786156E07B681B685B68FB60FB6803F0EE
:1049E0002903002B2ED0FB6803F00803002B05D011
:1049F0007B68DB6B43F004027B68DA63FB6803F0DF
:104A00002003002B05D07B68DB6B43F002027B6840
:104A1000DA63FB6803F00103002B05D07B68DB6BD6
:104A200043F001027B68DA637B681B6829229A6085
:104A30007B68042283F839207B68002283F83820C1
:104A4000012332E03B68B3F1FF3F1AD0FFF7D4FBFC
:104A500002467B69D31A3A689A4202D33B68002B1C
:104A60000FD17B68DB6B43F020027B68DA637B68E5
:104A7000032283F839207B68002283F8382003233F
:104A800013E07B681B685B6803F01003002BA1D068
:104A90007B681B6812229A607B68012283F83920A8
:104AA0007B68002283F83820002318461837BD465B
:104AB00080BD000080B487B000AF786039607B684B
:104AC0005B68B3F5403F7B6893F83830012B01D128
:104AD000022379E07B68012283F838207B68022278
:104AE00083F839203B681B0118337A6813443B6113
:104AF0003B695A683B699B681B0413437B61354BD8
:104B0000FB603B695B680A2B03D03B695B68092B40
:104B100007D13B69DB6803F07F437A6913437B610C
:104B200005E03B69DB681B067A6913437B613B68E0
:104B3000002B20D17B681B685A6AFB68DB4302EAC2
:104B400003017B681B687A690A435A627B681B68A9
:104B50003A6912689A613B695B680A2B03D03B692A
:104B60005B68092B27D13B69DA687B681B6822F0F8
:104B70007F429A621FE07B681B68DA69FB68DB434F
:104B800002EA03017B681B687A690A43DA617B6881
:104B90001B683A6912681A613B695B680A2B03D08B
:104BA0003B695B68092B06D13B69DA687B681B6847
:104BB00022F07F421A627B68012283F839207B68E9
:104BC000002283F83820002318461C37BD465DF8C4
:104BD000047B70470F0003FF80B48BB000AFF86018
:104BE000B9607A603B60FB681B685B6C03F0404116
:104BF0003B681A043B6B1A43FB681B680A435A6400
:104C0000FB681B687A68DA63FB685B68B3F5403F52
:104C100074D1BB6803F07F433B62BB6803F47F033E
:104C2000FB61BB6803F47F43BB61BB68DBB27B61A4
:104C3000FB689B68002B08D1BA69FB691A433B6A81
:104C400013437A6913437B6253E0FB689B68012B33
:104C500006D1BA69FB6913437A6913437B6248E062
:104C6000FB689B68022B11D1FB69DB0CFB61BB6904
:104C70009B0ABB617B69DB087B61BB695A01FB69ED
:104C8000DB0213437A6913437B6232E0FB689B6863
:104C9000032B17D13B6ADB0F3B62FB69DB0CFB612B
:104CA000BB69DB0ABB617B69DB087B61BB695A01BD
:104CB000FB699B021A433B6ADB0313437A69134384
:104CC0007B6216E03B6A1B0F3B62FB691B0DFB61BD
:104CD000BB691B0BBB617B691B097B61BB691A014B
:104CE000FB691B021A433B6A1B0313437A69134394
:104CF0007B62FB681B687A6A9A6303E0FB681B6847
:104D0000BA68DA6000BF2C37BD465DF8047B704797
:104D100080B489B000AF7860396000237B610023E4
:104D20003B610023BB610023FB6177E10122FB694A
:104D300002FA03F37B613B681B687A6913403B61AD
:104D40003A697B699A4240F066813B685B6803F090
:104D50000303012B05D03B685B6803F00303022BC0
:104D600030D17B689B68BB61FB695B00032202FA60
:104D700003F3DB43BA691340BB613B68DA68FB6944
:104D80005B0002FA03F3BA691343BB617B68BA693B
:104D90009A607B685B68BB610122FB6902FA03F3DE
:104DA000DB43BA691340BB613B685B681B0903F0D6
:104DB0000102FB6902FA03F3BA691343BB617B6822
:104DC000BA695A603B685B6803F00303032B17D092
:104DD0007B68DB68BB61FB695B00032202FA03F3BB
:104DE000DB43BA691340BB613B689A68FB695B00AF
:104DF00002FA03F3BA691343BB617B68BA69DA60EC
:104E00003B685B6803F00303022B23D1FB69DA08DC
:104E10007B68083253F82230BB61FB6903F007035B
:104E20009B000F2202FA03F3DB43BA691340BB6114
:104E30003B681A69FB6903F007039B0002FA03F35E
:104E4000BA691343BB61FB69DA087B680832B96948
:104E500043F822107B681B68BB61FB695B0003227F
:104E600002FA03F3DB43BA691340BB613B685B683A
:104E700003F00302FB695B0002FA03F3BA69134310
:104E8000BB617B68BA691A603B685B6803F44033B6
:104E9000002B00F0C0800023FB60664B5B6C654A12
:104EA00043F480435364634B5B6C03F48043FB60C7
:104EB000FB68614AFB699B08023352F82330BB61EF
:104EC000FB6903F003039B000F2202FA03F3DB43A9
:104ED000BA691340BB617B68584A934237D07B68FC
:104EE000574A934231D07B68564A93422BD07B6815
:104EF000554A934225D07B68544A93421FD07B6821
:104F0000534A934219D07B68524A934213D07B682C
:104F1000514A93420DD07B68504A934207D07B6838
:104F20004F4A934201D1092312E00A2310E00823DB
:104F30000EE007230CE006230AE0052308E0042323
:104F400006E0032304E0022302E0012300E0002343
:104F5000FA6902F0030292009340BA691343BB61FD
:104F60003549FB699B080233BA6941F823203D4B60
:104F70009B68BB613B69DB43BA691340BB613B681B
:104F80005B6803F48013002B03D0BA693B691343B9
:104F9000BB61344ABB699360324BDB68BB613B69E0
:104FA000DB43BA691340BB613B685B6803F40013E1
:104FB000002B03D0BA693B691343BB61294ABB6923
:104FC000D360284B5B68BB613B69DB43BA69134024
:104FD000BB613B685B6803F40033002B03D0BA6904
:104FE0003B691343BB611F4ABB6953601D4B1B6880
:104FF000BB613B69DB43BA691340BB613B685B68DB
:1050000003F48033002B03D0BA693B691343BB61BF
:10501000144ABB691360FB690133FB61FB690F2B09
:105020007FF684AE00BF00BF2437BD465DF8047B29
:10503000704700BF003802400038014000000240C5
:105040000004024000080240000C02400010024030
:105050000014024000180240001C024000200240E0
:1050600000240240003C014080B487B000AF78606B
:10507000396000233B610023FB600023BB600023F9
:105080007B61D9E001227B6902FA03F33B613A6854
:105090003B691340FB60FA683B699A4240F0C98063
:1050A0006B4A7B699B08023352F82330BB607B69F3
:1050B00003F003039B000F2202FA03F3BA681340C4
:1050C000BB607B68634A934237D07B68624A9342F5
:1050D00031D07B68614A93422BD07B68604A93420F
:1050E00025D07B685F4A93421FD07B685E4A93421B
:1050F00019D07B685D4A934213D07B685C4A934227
:105100000DD07B685B4A934207D07B685A4A934232
:1051100001D1092312E00A2310E008230EE007233F
:105120000CE006230AE0052308E0042306E003233D
:1051300004E0022302E0012300E000237A6902F088
:10514000030292009340BA689A4232D14B4B1A68DC
:10515000FB68DB43494913400B60484B5A68FB68C6
:10516000DB43464913404B60444BDA68FB68DB4342
:1051700042491340CB60414B9A68FB68DB433F498F
:1051800013408B607B6903F003039B000F2202FA3C
:1051900003F3BB602E4A7B699B08023352F823104D
:1051A000BB68DA432A487B699B080A40023340F80F
:1051B00023207B681A687B695B00032101FA03F3F3
:1051C000DB431A407B681A607B69DA087B68083227
:1051D00053F822107B6903F007039B000F2202FAA9
:1051E00003F3DB437A69D20819407B68083243F83D
:1051F00022107B68DA687B695B00032101FA03F304
:10520000DB431A407B68DA607B685A6801217B695E
:1052100001FA03F3DB431A407B685A607B689A68A3
:105220007B695B00032101FA03F3DB431A407B68CF
:105230009A607B6901337B617B690F2B7FF622AF1C
:1052400000BF00BF1C37BD465DF8047B704700BF40
:105250000038014000000240000402400008024003
:10526000000C0240001002400014024000180240EE
:10527000001C02400020024000240240003C01408B
:1052800080B483B000AF78600B467B8013467B70A0
:105290007B78002B03D07A887B689A6103E07B8857
:1052A0001A047B689A6100BF0C37BD465DF8047B29
:1052B0007047000080B582B000AF0346FB80084B0A
:1052C0005A69FB881340002B06D0054AFB885361BE
:1052D000FB88184600F006F800BF0837BD4680BDC1
:1052E000003C014080B483B000AF0346FB8000BFA8
:1052F0000C37BD465DF8047B7047000080B584B074
:1053000000AF78607B68002B01D101232BE17B6823
:1053100093F83D30DBB2002B06D17B68002283F886
:105320003C207868FCF71CFE7B68242283F83D2033
:105330007B681B681A687B681B6822F001021A6090
:105340007B681B681A687B681B6842F400421A601D
:105350007B681B681A687B681B6822F400421A602D
:1053600001F0DCF8F8607B685B68814A934207D8FB
:10537000FB68804A934294BF01230023DBB206E01E
:10538000FB687D4A934294BF01230023DBB2002BCC
:1053900001D00123E7E0FB68784AA2FB03239B0CC2
:1053A000BB607B681B685B6823F03F017B681B6800
:1053B000BA680A435A607B681B681B6A23F03F0186
:1053C0007B685B686A4A934202D8BB68013309E094
:1053D000BB684FF4967202FB03F3694AA2FB0323F6
:1053E0009B0901337A6812680B4313627B681B6860
:1053F000DB6923F44F4222F0FF027B685B685C4963
:105400008B4219D8FB68591E7B685B685B00B1FB57
:10541000F3F3591C40F6FC730B40002B0AD0FB68D9
:10542000591E7B685B685B00B1FBF3F30133C3F388
:105430000B0351E004234FE07B689B68002B11D1E4
:10544000FB68581E7B6859680B465B000B44B0FB39
:10545000F3F30133C3F30B03002B0CBF0123002331
:10546000DBB212E0FB68581E7B6859680B469B0054
:105470000B4499000B44B0FBF3F30133C3F30B036C
:10548000002B0CBF01230023DBB2002B01D0012332
:1054900022E07B689B68002B0ED1FB68581E7B685E
:1054A00059680B465B000B44B0FBF3F30133C3F3C5
:1054B0000B0343F400430FE0FB68581E7B685968F8
:1054C0000B469B000B4499000B44B0FBF3F30133F4
:1054D000C3F30B0343F44043796809681343CB617A
:1054E0007B681B681B6823F0C0017B68DA697B68F6
:1054F0001B6A1A437B681B680A431A607B681B6837
:105500009B6823F4034323F0FF037A6811697A68E8
:10551000D26811437A6812680B4393607B681B68FA
:10552000DB6823F0FF017B685A697B689B691A433B
:105530007B681B680A43DA607B681B681A687B68B3
:105540001B6842F001021A607B6800221A647B68C3
:10555000202283F83D207B6800221A637B680022AA
:1055600083F83E20002318461037BD4680BD00BF9B
:10557000A08601007F841E00FF083D0083DE1B43E0
:10558000D34D621080B483B000AF786039607B681F
:1055900093F83D30DBB2202B29D17B68242283F89D
:1055A0003D207B681B681A687B681B6822F001023B
:1055B0001A607B681B685A6A7B681B6822F01002BD
:1055C0005A627B681B68596A7B681B683A680A43A1
:1055D0005A627B681B681A687B681B6842F001028C
:1055E0001A607B68202283F83D20002300E002231C
:1055F00018460C37BD465DF8047B704780B485B013
:1056000000AF786039600023FB817B6893F83D3000
:10561000DBB2202B2AD17B68242283F83D207B68D3
:105620001B681A687B681B6822F001021A607B689D
:105630001B685B6AFB81FB8923F00F03FB813B68DE
:105640009AB2FB891343FB817B681B68FA895A6213
:105650007B681B681A687B681B6842F001021A604D
:105660007B68202283F83D20002300E002231846B7
:105670001437BD465DF8047B7047000080B584B0E8
:1056800000AF78607B68002B01D10123BFE07B680D
:1056900093F8A130DBB2002B06D17B68002283F89F
:1056A000A0207868FCF7C6FC7B68022283F8A12062
:1056B0007B681B689A697B681B6822F070429A615C
:1056C0007B681B6899697B685A687B689B681A438A
:1056D0007B68DB681A437B681B691A437B681B681D
:1056E0000A439A617B681B6899687B681A684A4B11
:1056F0000B4093607B685B691B04FB607B681B68E5
:1057000099687B689A69FB681A437B681B680A433F
:105710009A607B681B68D9687B681A683E4B0B40AF
:10572000D3607B68DB691B04FB607B681B68D968FE
:105730007B681A6AFB681A437B681B680A43DA6055
:105740007B681B6819697B681A68334B0B401361CF
:105750007B685B6A1B04FB607B681B6819697B685C
:105760009A6AFB681A437B681B680A431A617B6864
:105770001B6859697B681A68274B0B4053617B682B
:10578000DB6A1B04FB607B681B6859697B681A6BCA
:10579000FB681A437B681B680A435A617B6893F86D
:1057A00035301B02FB607B6893F836301B04BB600E
:1057B0007B681B68DA6A7B681B6802F07F42DA62EA
:1057C0007B681B68D96ABA68FB6813437A6892F8E9
:1057D00034201A437B681B680A43DA627B681B68C3
:1057E0005A6B7B681B6842F006025A637B681B6831
:1057F0009A697B681B6842F001029A617B6800220B
:10580000C3F8A4207B68012283F8A1200023184656
:105810001037BD4680BD00BF00F800F0B0B584B0C1
:1058200000AFF860B9607A60FB6893F8A030012B94
:1058300001D102232CE0FB68012283F8A020FB6841
:10584000022283F8A120FA687B68342101FB03F36C
:10585000134403F13802BB6814461D460FCD0FC434
:105860000FCD0FC40FCD0FC42B6823607A68B968C1
:10587000F86800F03BF8FB681B6801225A62FB687D
:10588000012283F8A120FB68002283F8A0200023D6
:1058900018461037BD46B0BD80B483B000AF786005
:1058A0007B6893F8A030012B01D1022316E07B68BE
:1058B000012283F8A0207B68022283F8A1200A4BF2
:1058C0009B69094A43F4803393617B68012283F822
:1058D000A1207B68002283F8A020002318460C3703
:1058E000BD465DF8047B70470068014080B489B014
:1058F00000AFF860B9607A60BB685A68FB681B68E3
:10590000DB681B0CC3F30B0313441B04FB61FB6834
:105910001B681A467B68DB01134484335B68FA68B2
:10592000126811467A68D2010A44843203F4704343
:105930005360BB681A68FB681B68DB681B0CC3F309
:105940000B0313445A1CFB681B6819467B68DB0178
:105950000B4484331946FB6913434B60BB68DA6818
:10596000FB681B68DB68C3F30A0313441B04FB6179
:10597000FB681B681A467B68DB01134484339B6811
:10598000FA68126811467A68D2010A44843203F434
:1059900070439360BB689A68FB681B68DB68C3F35D
:1059A0000A0313445A1CFB681B6819467B68DB0119
:1059B0000B4484331946FB6913438B60FB681B68F7
:1059C0001A467B68DB01134484331B69FA6812684A
:1059D00011467A68D2010A44843223F00703136126
:1059E000FB681B681A467B68DB01134484331A4644
:1059F000BB681B691361BB6893F831301B02FB6104
:105A0000BB6893F832301B04BB61BB689B691B0603
:105A10007B61FB681B681A467B68DB011344843397
:105A20009B69FB681B681A467B68DB01134484335F
:105A30001A4600239361BB6893F830301A46FB691D
:105A40001A43BB691A43FB681B6819467B68DB0174
:105A50000B44843319467B6913438B61FB681B68D5
:105A60001A467B68DB01134484335B69FA68126869
:105A700011467A68D2010A44843223F0FF0353614D
:105A8000FB681B681A467B68DB01134484331A46A3
:105A9000BB685B695361FB681B681A467B68DB0166
:105AA00013448433DB69FA68126811467A68D201BC
:105AB0000A44843223F4E06323F00703D361BB6814
:105AC000DA69BB681B6AF968096808467968C90120
:105AD000014484311343CB61FB681B681A467B6821
